:100000000C942A000C9447000C9447000C94470071
:100010000C9447000C9447000C9447000C94470044
:100020000C9447000C9447000C9447000C94470034
:100030000C9447000C9447000C9447000C94470024
:100040000C9447000C9447000C9447000C94470014
:100050000C94470011241FBECFE5D8E0DEBFCDBF12
:1000600010E0A0E6B0E0E0E9F6E002C005900D92F5
:10007000A03AB107D9F720E0A0EAB0E001C01D9294
:10008000A13BB207E1F70E94CB020C9446030C940B
:100090000000672B09F09FC0009711F4D8980895CD
:1000A0008130910511F4D99808958230910511F4A9
:1000B000DA9808958330910511F4DB98089584301F
:1000C000910511F4DC9808958530910511F4DD98BF
:1000D00008958630910511F4DE98089587309105D2
:1000E00011F4DF9808958A30910511F4C0980895AD
:1000F0008B30910511F4C19808958C30910511F45D
:10010000C29808958D30910511F4C39808958E30EA
:10011000910511F4C49808958F30910511F4C59894
:1001200008958031910511F4C698089581319105A3
:1001300011F4C79808958431910511F4A898089591
:100140008531910511F4A99808958631910511F42E
:10015000AA9808958731910511F4AB9808958831D4
:10016000910511F4AC9808958931910511F4AD9879
:1001700008958A31910511F4AE9808958B31910557
:1001800011F4AF9808958E31910511F49098089567
:100190008F31910511F4919808958032910511F4F1
:1001A000929808958132910511F4939808958232BE
:1001B000910511F4949808958332910511F495985E
:1001C00008958432910511F496980895859709F061
:1001D0009FC097980895009711F4D89A0895813098
:1001E000910511F4D99A08958230910511F4DA9AA3
:1001F00008958330910511F4DB9A089584309105B8
:1002000011F4DC9A08958530910511F4DD9A089572
:100210008630910511F4DE9A08958730910511F426
:10022000DF9A08958A30910511F4C09A08958B30B1
:10023000910511F4C19A08958C30910511F4C29A78
:1002400008958D30910511F4C39A08958E3091056B
:1002500011F4C49A08958F30910511F4C59A089548
:100260008031910511F4C69A08958131910511F4F8
:10027000C79A08958431910511F4A89A089585319B
:10028000910511F4A99A08958631910511F4AA9A5D
:1002900008958731910511F4AB9A0895883191053D
:1002A00011F4AC9A08958931910511F4AD9A08952D
:1002B0008A31910511F4AE9A08958B31910511F4AC
:1002C000AF9A08958E31910511F4909A08958F3167
:1002D000910511F4919A08958032910511F4929A42
:1002E00008958132910511F4939A0895823291050F
:1002F00011F4949A08958332910511F4959A089512
:100300008432910511F4969A0895859709F4979A85
:100310000895CF93C82F80FF07C061E070E082E2AC
:1003200090E00E94490006C060E070E082E290E048
:100330000E944900C1FF07C061E070E083E290E0E5
:100340000E94490006C060E070E083E290E00E94F5
:100350004900C2FF07C061E070E084E290E00E94C3
:10036000490006C060E070E084E290E00E9449002D
:10037000C3FF07C061E070E085E290E00E944900A1
:1003800006C060E070E085E290E00E944900CF91F5
:100390000895CF93C82F60E070E08AE190E00E945A
:1003A00049008C2F0E94890161E070E08BE190E0B0
:1003B0000E94490089EF90E00197F1F700C000002A
:1003C00060E070E08BE190E00E94490089EF90E0EE
:1003D0000197F1F700C00000CF91089580E00E94DE
:1003E000C90181E00E94C9010895CF93C62F8130D1
:1003F00059F480E8860F82958F700E94C9018C2F76
:100400008F700E94C9010CC0823051F480EC860FBD
:1004100082958F700E94C9018C2F8F700E94C90134
:10042000CF91089580E00E94890187E893E10197C8
:10043000F1F700C0000083E00E94C90181EE94E062
:100440000197F1F700C0000083E00E94C9018DEB25
:100450009AE00197F1F700C0000083E00E94C90113
:1004600082E00E94C90182E00E94C90188E00E94E6
:10047000C90180E00E94C9018CE00E94C90180E0AE
:100480000E94C90186E00E94C9010895CF93C82F38
:1004900061E070E08AE190E00E9449008C2F829533
:1004A0008F700E94890161E070E08BE190E00E9412
:1004B000490089EF90E00197F1F700C0000060E08B
:1004C00070E08BE190E00E94490089EF90E0019795
:1004D000F1F700C000008C2F8F700E94890161E04D
:1004E00070E08BE190E00E94490089EF90E0019775
:1004F000F1F700C0000060E070E08BE190E00E9446
:10050000490089EF90E00197F1F700C00000CF911A
:100510000895CF93DF93EC018881882331F02196F1
:100520000E94460289918111FBCFDF91CF910895FE
:1005300082E08BB988E18AB986E880BD10BC8CE086
:1005400089B908955F9BFECF8CB1E091A000F09136
:10055000A100EE55FF4F8083089561E081E00E9485
:10056000F5010E94EE0180E690E00E9489022FE3EF
:100570008DE093E0215080409040E1F700C0000002
:1005800061E081E00E94F5010E94EE018EE690E0BC
:100590000E94890208958FEF81BB84BB0E9498025C
:1005A0000E94120261E081E00E94F5010E94EE01CA
:1005B0008EE690E00E948902E12CF12CCC24C394B9
:1005C000D12C02EA10E0CE2DDF2D209709F052C089
:1005D0000E94A2028E36A1F40E94A202853771F415
:1005E0000E94A2028D3639F4E092A000F092A100A0
:1005F000CC2DDD2D3FC00E94AD0202C00E94AD0295
:100600008091A0009091A1000C97F9F6F801148652
:1006100061E081E00E94F5010E94EE01F801808115
:10062000803329F48EE790E00E94890204C08EE8AE
:1006300090E00E948902E092A000F092A100FFE306
:1006400022E48FE0F15020408040E1F700C000003C
:1006500061E081E00E94F5010E94EE018EE690E0EB
:100660000E948902E091A000F091A100EE55FF4F99
:100670001082A9CF0E94A2028091A0009091A100B7
:1006800001969093A1008093A000BACFF894FFCF79
:10069000496E76616C696420636172642100456E05
:1006A00074657220636172642C706C7321004E6FEC
:1006B0007420656E6F7567682062616C21005469F3
:1006C000636B657420636F6E6669726D656421008B
:00000001FF
