:100000000C942A000C943C000C943C000C943C0092
:100010000C943C000C943C000C943C000C943C0070
:100020000C943C000C943C000C943C000C943C0060
:100030000C943C000C943C000C943C000C943C0050
:100040000C943C000C943C000C943C000C943C0040
:100050000C943C0011241FBECFE5D8E0DEBFCDBF1D
:1000600020E0A0E6B0E001C01D92A137B207E1F7A1
:100070000E94A2020C94E1020C940000672B09F08C
:100080009FC0009711F4D89808958130910511F41C
:10009000D99808958230910511F4DA980895833043
:1000A000910511F4DB9808958430910511F4DC98E2
:1000B00008958530910511F4DD98089586309105F5
:1000C00011F4DE9808958730910511F4DF980895B2
:1000D0008A30910511F4C09808958B30910511F480
:1000E000C19808958C30910511F4C29808958D300F
:1000F000910511F4C39808958E30910511F4C498B8
:1001000008958F30910511F4C598089580319105B7
:1001100011F4C69808958131910511F4C798089596
:100120008431910511F4A89808958531910511F451
:10013000A99808958631910511F4AA9808958731F8
:10014000910511F4AB9808958831910511F4AC989C
:1001500008958931910511F4AD9808958A3191057A
:1001600011F4AE9808958B31910511F4AF9808956C
:100170008E31910511F4909808958F31910511F405
:10018000919808958032910511F4929808958132E2
:10019000910511F4939808958232910511F4949881
:1001A00008958332910511F495980895843291054C
:1001B00011F496980895859709F09FC0979808952F
:1001C000009711F4D89A08958130910511F4D99AC5
:1001D00008958230910511F4DA9A089583309105DB
:1001E00011F4DB9A08958430910511F4DC9A089596
:1001F0008530910511F4DD9A08958630910511F44A
:10020000DE9A08958730910511F4DF9A08958A30B7
:10021000910511F4C09A08958B30910511F4C19A9B
:1002200008958C30910511F4C29A08958D3091058E
:1002300011F4C39A08958E30910511F4C49A08956B
:100240008F30910511F4C59A08958031910511F40C
:10025000C69A08958131910511F4C79A08958431A1
:10026000910511F4A89A08958531910511F4A99A80
:1002700008958631910511F4AA9A08958731910560
:1002800011F4AB9A08958831910511F4AC9A089550
:100290008931910511F4AD9A08958A31910511F4CF
:1002A000AE9A08958B31910511F4AF9A08958E316D
:1002B000910511F4909A08958F31910511F4919A56
:1002C00008958032910511F4929A08958132910532
:1002D00011F4939A08958232910511F4949A089535
:1002E0008332910511F4959A08958432910511F4A1
:1002F000969A0895859709F4979A0895CF93C82FF1
:1003000080FF07C061E070E082E290E00E943E0062
:1003100006C060E070E082E290E00E943E00C1FF13
:1003200007C061E070E083E290E00E943E0006C0FA
:1003300060E070E083E290E00E943E00C2FF07C0F0
:1003400061E070E084E290E00E943E0006C060E060
:1003500070E084E290E00E943E00C3FF07C061E0CD
:1003600070E085E290E00E943E0006C060E070E030
:1003700085E290E00E943E00CF910895CF93C82F70
:1003800060E070E08AE190E00E943E008C2F0E94C5
:100390007E0161E070E08BE190E00E943E0089EF19
:1003A00090E00197F1F700C0000060E070E08BE1A1
:1003B00090E00E943E0089EF90E00197F1F700C0C5
:1003C0000000CF91089580E00E94BE0181E00E946C
:1003D000BE010895CF93C62F813059F480E8860F6F
:1003E00082958F700E94BE018C2F8F700E94BE017B
:1003F0000CC0823051F480EC860F82958F700E9481
:10040000BE018C2F8F700E94BE01CF91089580E0B5
:100410000E947E0187E893E10197F1F700C0000098
:1004200083E00E94BE0181EE94E00197F1F700C0E5
:10043000000083E00E94BE018DEB9AE00197F1F786
:1004400000C0000083E00E94BE0182E00E94BE0165
:1004500082E00E94BE0188E00E94BE0180E00E940E
:10046000BE018CE00E94BE0180E00E94BE0186E0D9
:100470000E94BE010895CF93C82F61E070E08AE129
:1004800090E00E943E008C2F82958F700E947E012A
:1004900061E070E08BE190E00E943E0089EF90E027
:1004A0000197F1F700C0000060E070E08BE190E0A0
:1004B0000E943E0089EF90E00197F1F700C0000034
:1004C0008C2F8F700E947E0161E070E08BE190E0E4
:1004D0000E943E0089EF90E00197F1F700C0000014
:1004E00060E070E08BE190E00E943E0089EF90E0D8
:1004F0000197F1F700C00000CF910895CF93DF93EB
:10050000EC018881882331F021960E943B02899179
:100510008111FBCFDF91CF91089582E08BB988E103
:100520008AB986E880BD10BC8CE089B908955F9BCC
:10053000FECF8CB1E0916000F0916100EE59FF4F69
:10054000808308958FEF81BB84BB0E948D020E943F
:10055000070261E081E00E94EA010E94E301C2E635
:10056000D0E00E9497028091600090916100019616
:1005700090936100809360000C9799F71C86CE01E0
:100580000E947E0210926100109260002FE382E4CC
:100590009FE0215080409040E1F700C0000061E002
:1005A00081E00E94EA010E94E30161E081E00E9493
:1005B000EA01E0916000F0916100EE59FF4F108276
:0605C000D0CFF894FFCF3C
:00000001FF
