S01600004D617374657241544D45474133322E737265638E
S11300000C942A000C9434000C9434000C943400A6
S11300100C9434000C9434000C9434000C9434008C
S11300200C9434000C9434000C9434000C9434007C
S11300300C9434000C9434000C9434000C9434006C
S11300400C9434000C9434000C9434000C9434005C
S11300500C94340011241FBECFE5D8E0DEBFCDBF21
S11300600E9443000C9454000C9400001BB888E1D7
S11300708AB986E880BD10BC83E389B908955D9B85
S1130080FECF8CB9089517BA8FEF8ABB0E94360051
S1130090B09BFECF80EF0E943F008FE493EC01976A
S10F00A0F1F700C00000F4CFF894FFCF8B
S9030000FC
