S01C000052464944206461746120746F2061726475696E6F2E7372656314
S11300000C942A000C9434000C9434000C943400A6
S11300100C9434000C9434000C9434000C9434008C
S11300200C9434000C9434000C9434000C9434007C
S11300300C9434000C9434000C9434000C9434006C
S11300400C9434000C9434000C9434000C9434005C
S11300500C94340011241FBECFE5D8E0DEBFCDBF21
S11300600E9448000C9497000C94000082E08BB925
S113007088E18AB986E880BD10BC8CE089B908950E
S11300805F9BFECF8CB108955D9BFECF8CB9089524
S1130090CF93DF93CDB7DEB72C970FB6F894DEBFBE
S11300A00FBECDBF0E9436006E012DE0C20ED11CE2
S11300B00E9440008230C1F1FBCF0E944000182F03
S11300C08FEB810F863020F080ED810F8A3070F441
S11300D08CE0E816F10454F4E1E0F0E0EC0FFD1FCD
S11300E0EE0DFF1D10839FEFE91AF90A133021F476
S11300F0FE0131967F0105C0FCE0EF16F104E9F63C
S1130100F7CFF70181917F010E944400EC14FD04B4
S1130110C1F7FFE32DE083E0F15020408040E1F798
S113012000C00000123021F6E12CF12CC6CFF89467
S1050130FFCFFB
S9030000FC
