:100000000C942A000C943F000C943F000C943F0089
:100010000C943F000C943F000C943F000C943F0064
:100020000C943F000C943F000C943F000C943F0054
:100030000C943F000C943F000C943F000C943F0044
:100040000C943F000C943F000C943F000C943F0034
:100050000C943F0011241FBECFE5D8E0DEBFCDBF1A
:1000600010E0A0E6B0E0E8E4F1E002C005900D92F7
:10007000AA36B107D9F70E9449000C94A2000C944B
:1000800000005F9BFECF8CB108955D9BFECF8CB9C5
:100090000895CF93DF9300D000D000D0CDB7DEB766
:1000A00086E0E0E6F0E0DE01119601900D928A957F
:1000B000E1F7B0906600C0906700D090680017BA72
:1000C0008FEF8ABB7E0126E0E20EF11CAA24A394E6
:1000D000B09B15C08E010F5F1F4FF80181918F01FA
:1000E0000E9445000E151F05C1F7FFE32DE083E0D8
:1000F000F15020408040E1F700C0000012C08B2D7D
:100100000E9445008C2D0E9445008D2D0E944500C7
:100110009FE3EDE0F3E09150E040F040E1F700C0F4
:1001200000000E944100853659F4ABBA2FE38DE000
:1001300093E0215080409040E1F700C00000C8CF1C
:080140001BBAC6CFF894FFCFF3
:0A01480068656C6C6F006279650059
:00000001FF
