:100000000C942A000C943F000C943F000C943F0089
:100010000C943F000C943F000C943F000C943F0064
:100020000C943F000C943F000C943F000C943F0054
:100030000C943F000C943F000C943F000C943F0044
:100040000C943F000C943F000C943F000C943F0034
:100050000C943F0011241FBECFE5D8E0DEBFCDBF1A
:1000600010E0A0E6B0E0E2E3F1E002C005900D92FE
:10007000A636B107D9F70E9441000C9497000C9462
:100080000000CF93DF93CDB7DEB72A970FB6F89471
:10009000DEBF0FBECDBF86E0E0E6F0E0DE011196E8
:1000A00001900D928A95E1F782E699E798878F8310
:1000B00085E690E09A87898717BA8FEF8ABB81BB64
:1000C0001BB888E18AB986E880BD10BC83E389B992
:1000D0001BBAAE01465F5F4F9E012A5F3F4FB09B48
:1000E00013C0FE0131965D9BFECF81918CB92E1716
:1000F0003F07C9F76FE38DE093E061508040904087
:10010000E1F700C00000EBCFFE0137965D9BFECF0C
:1001100081918CB94E175F07C9F76FE38DE093E0CB
:10012000615080409040E1F700C00000D8CFF894C3
:02013000FFCFFF
:0601320068656C6C6F00B3
:00000001FF
