:100000000C942A000C9434000C9434000C943400AA
:100010000C9434000C9434000C9434000C94340090
:100020000C9434000C9434000C9434000C94340080
:100030000C9434000C9434000C9434000C94340070
:100040000C9434000C9434000C9434000C94340060
:100050000C94340011241FBECFE5D8E0DEBFCDBF25
:100060000E9443000C9456000C9400001BB888E1D9
:100070008AB986E880BD10BC83E389B908955F9B87
:10008000FECF8CB108958FEF8ABB17BA0E9436005D
:100090000E943F00803FE1F78BB380958BBB8FE4DC
:1000A00093EC0197F1F700C00000F2CFF894FFCF76
:00000001FF
