S010000053656E646D7373672E73726563D0
S11300000C942A000C9447000C9447000C9447006D
S11300100C9447000C9447000C9447000C94470040
S11300200C9447000C9447000C9447000C94470030
S11300300C9447000C9447000C9447000C94470020
S11300400C9447000C9447000C9447000C94470010
S11300500C94470011241FBECFE5D8E0DEBFCDBF0E
S113006010E0A0E6B0E0E2E3F9E002C005900D92F2
S1130070A43EB107D9F721E0A4EEB0E001C01D927F
S1130080AB30B207E1F70E94CF020C9497040C94B2
S11300900000672B09F09FC0009711F4D8980895C9
S11300A08130910511F4D99808958230910511F4A5
S11300B0DA9808958330910511F4DB98089584301B
S11300C0910511F4DC9808958530910511F4DD98BB
S11300D008958630910511F4DE98089587309105CE
S11300E011F4DF9808958A30910511F4C0980895A9
S11300F08B30910511F4C19808958C30910511F459
S1130100C29808958D30910511F4C39808958E30E6
S1130110910511F4C49808958F30910511F4C59890
S113012008958031910511F4C6980895813191059F
S113013011F4C79808958431910511F4A89808958D
S11301408531910511F4A99808958631910511F42A
S1130150AA9808958731910511F4AB9808958831D0
S1130160910511F4AC9808958931910511F4AD9875
S113017008958A31910511F4AE9808958B31910553
S113018011F4AF9808958E31910511F49098089563
S11301908F31910511F4919808958032910511F4ED
S11301A0929808958132910511F4939808958232BA
S11301B0910511F4949808958332910511F495985A
S11301C008958432910511F496980895859709F05D
S11301D09FC097980895009711F4D89A0895813094
S11301E0910511F4D99A08958230910511F4DA9A9F
S11301F008958330910511F4DB9A089584309105B4
S113020011F4DC9A08958530910511F4DD9A08956E
S11302108630910511F4DE9A08958730910511F422
S1130220DF9A08958A30910511F4C09A08958B30AD
S1130230910511F4C19A08958C30910511F4C29A74
S113024008958D30910511F4C39A08958E30910567
S113025011F4C49A08958F30910511F4C59A089544
S11302608031910511F4C69A08958131910511F4F4
S1130270C79A08958431910511F4A89A0895853197
S1130280910511F4A99A08958631910511F4AA9A59
S113029008958731910511F4AB9A08958831910539
S11302A011F4AC9A08958931910511F4AD9A089529
S11302B08A31910511F4AE9A08958B31910511F4A8
S11302C0AF9A08958E31910511F4909A08958F3163
S11302D0910511F4919A08958032910511F4929A3E
S11302E008958132910511F4939A0895823291050B
S11302F011F4949A08958332910511F4959A08950E
S11303008432910511F4969A0895859709F4979A81
S11303100895CF93C82F80FF07C061E070E082E2A8
S113032090E00E94490006C060E070E082E290E044
S11303300E944900C1FF07C061E070E083E290E0E1
S11303400E94490006C060E070E083E290E00E94F1
S11303504900C2FF07C061E070E084E290E00E94BF
S1130360490006C060E070E084E290E00E94490029
S1130370C3FF07C061E070E085E290E00E9449009D
S113038006C060E070E085E290E00E944900CF91F1
S11303900895CF93C82F60E070E08AE190E00E9456
S11303A049008C2F0E94890161E070E08BE190E0AC
S11303B00E94490089EF90E00197F1F700C0000026
S11303C060E070E08BE190E00E94490089EF90E0EA
S11303D00197F1F700C00000CF91089580E00E94DA
S11303E0C90181E00E94C9010895CF93C62F8130CD
S11303F059F480E8860F82958F700E94C9018C2F72
S11304008F700E94C9010CC0823051F480EC860FB9
S113041082958F700E94C9018C2F8F700E94C90130
S1130420CF91089580E00E94890187E893E10197C4
S1130430F1F700C0000083E00E94C90181EE94E05E
S11304400197F1F700C0000083E00E94C9018DEB21
S11304509AE00197F1F700C0000083E00E94C9010F
S113046082E00E94C90182E00E94C90188E00E94E2
S1130470C90180E00E94C9018CE00E94C90180E0AA
S11304800E94C90186E00E94C9010895CF93C82F34
S113049061E070E08AE190E00E9449008C2F82952F
S11304A08F700E94890161E070E08BE190E00E940E
S11304B0490089EF90E00197F1F700C0000060E087
S11304C070E08BE190E00E94490089EF90E0019791
S11304D0F1F700C000008C2F8F700E94890161E049
S11304E070E08BE190E00E94490089EF90E0019771
S11304F0F1F700C0000060E070E08BE190E00E9442
S1130500490089EF90E00197F1F700C00000CF9116
S11305100895CF93DF93EC018881882331F02196ED
S11305200E94460289918111FBCFDF91CF910895FA
S113053082E08BB988E18AB986E880BD10BC8CE082
S113054089B908955F9BFECF8CB1E091E400F091EE
S1130550E500E450FF4F8083089561E081E00E944C
S1130560F5010E94EE0184EA90E00E9489022FE3E3
S11305708DE093E0215080409040E1F700C00000FE
S113058061E081E00E94F5010E94EE0182EB90E0BF
S11305900E94890208955D9BFECF8CB908958FEF68
S11305A081BB84BB0E9498020E94120261E081E038
S11305B00E94F5010E94EE0182EB90E00E94890204
S11305C0A12CB12C88248394912C0CEF10E0C8E06A
S11305D0D1E00F2EF8EEEF2EF0E0FF2EF02DCA2C16
S11305E0DB2CC114D10409F08DC10E94A2028E3605
S11305F089F40E94A202853759F40E94A2028D3622
S113060049F4A092E400B092E500C82CD92C7AC138
S11306100E94AD028091E4009091E5000C9709F7E7
S1130620F801148661E081E00E94F5010E94EE0168
S1130630F8018081803329F482EC90E00E948902E1
S113064004C082ED90E00E948902EDEFF0E0A8EE94
S1130650B0E081918D93EC17FD07D9F75FC1FC01E0
S1130660EF55FF4F80810E94CB0283ED90E3019709
S1130670F1F700C000008091E6009091E700019638
S11306809093E7008093E6008230910544F38DE077
S11306900E94CB029FE3EDE0F3E09150E040F04094
S11306A0E1F700C00000A092E600B092E7008A2DB6
S11306B09B2DFC01E956FF4F80810E94CB0283ED04
S11306C090E30197F1F700C000008091E60090915B
S11306D0E70001969093E7008093E6008930910546
S11306E044F38DE00E94CB029FE3EDE0F3E09150F0
S11306F0E040F040E1F700C00000A092E600B092B4
S1130700E7008A2D9B2DFC01E657FF4F80810E9454
S1130710CB0283ED90E30197F1F700C000008091D4
S1130720E6009091E70001969093E7008093E6003D
S11307308C30910544F3A092E600B092E7008A2D34
S11307409B2DFC01E851FF4F80810E94CB02E3ED19
S1130750F0E33197F1F700C000008091E60090913A
S1130760E70001969093E7008093E6008B309105B3
S113077044F382E20E94CB0283ED90E30197F1F708
S113078000C000008DE00E94CB029FE3EDE0F3E0A7
S11307909150E040F040E1F700C00000F801808192
S11307A08033A1F5A092E600B092E7008A2D9B2D3C
S11307B0FC01EC59FF4F80810E94CB0283ED90E352
S11307C00197F1F700C000008091E6009091E700E6
S11307D001969093E7008093E6008331910544F3FA
S11307E08AE10E94CB02E3EDF0E33197F1F700C018
S11307F000008DE00E94CB02FFE32DE083E0F15086
S113080020408040E1F700C0000033C0A092E60021
S1130810B092E7008A2D9B2DFC01E858FF4F8081A0
S11308200E94CB02E3EDF0E33197F1F700C0000042
S11308308091E6009091E70001969093E700809301
S1130840E6008131910544F38AE10E94CB0283EDF5
S113085090E30197F1F700C000008DE00E94CB0205
S11308609FE3EDE0F3E09150E040F040E1F700C099
S11308700000A092E600B092E7008A2D9B2DFC01B7
S1130880E05AFF4F80810E94CB0283ED90E30197F1
S1130890F1F700C000008091E6009091E700019616
S11308A09093E7008093E6008330910544F38DE054
S11308B00E94CB029FE3EDE0F3E09150E040F04072
S11308C0E1F700C00000A092E400B092E5002FE33D
S11308D082E49FE0215080409040E1F700C0000096
S11308E061E081E00E94F5010E94EE0182EB90E05C
S11308F00E948902E091E400F091E500E450FF4F8A
S113090010826DCE0E94A2028091E4009091E500D5
S113091001969093E5008093E4007CCEF701138662
S1130920A092E600B092E7008A2D9B2D98CEF89411
S1050930FFCFF3
S113093252554E004E6F7420656E6F756768206263
S1130942616C616E63652E005469636B6574206328
S11309526F6E6669726D65642E0041542B434D4778
S1130962533D222B38380041542B434D47463D31E9
S113097200415400496E76616C696420636172645B
S11309822100456E74657220636172642C706C730D
S113099221004E6F7420656E6F7567682062616C0A
S11309A221005469636B657420636F6E6669726DAE
S10709B26564210053
S9030000FC
